:020000040800F2
:1000000030180020D900000829280008A72400087B
:1000100000000000000000000000000000000000E0
:10002000000000000000000000000000032C000899
:100030000000000000000000012C0008052C000852
:10004000EB000008EB000008EB000008EB000008E4
:10005000EB000008EB000008EB000008EB000008D4
:10006000EB000008EB000008EB000008EB000008C4
:10007000EB000008EB00000800000000EB000008A7
:1000800000000000EB00000800000000000000007D
:10009000EB00000800000000EB000008EB00000887
:1000A000EB000008EB000008EB000008EB00000884
:1000B000EB000008EB000008EB000008F94900081D
:1000C0000448854600F0D8FB004800474954000822
:1000D000C046C04630180020044880470448004706
:1000E000FEE7FEE7FEE7FEE7FEE7FEE7A12C0008DD
:1000F000C100000830B50B46014600202022012433
:1001000009E00D46D5409D4205D31D469540491B4B
:100110002546954040191546521E002DF1DC30BD94
:1001200003460B439B0703D009E008C9121F08C010
:10013000042AFAD203E00B780370401C491C521EBB
:10014000F9D27047D2B201E00270401C491EFBD2C6
:1001500070470022F6E710B513460A4604461946D2
:10016000FFF7F0FF204610BDF8B502464A40D40F15
:1001700042004B0052085B089A4202D202460846EF
:1001800011464A0023D0C30D4A00DDB2120EAD1A4B
:10019000202D35DA49020126490AF6058A19002C74
:1001A00000D0524220214F1B1146B9402A4110185D
:1001B000C20D9A4221D0002C17D0012D08DCDA059F
:1001C000801AD20F8019D207DBB200F00BF9F8BD0C
:1001D000DA05801A012340001B06C01880185A4215
:1001E0008018CA0F1043490007E04908C2071143AD
:1001F000DA05801A80194008801800F0EBF8F8BD85
:1002000061000122511A001BF7E70122D207514079
:10021000AAE70122D2075040A6E7024670B54A403D
:10022000D30FDB0740002DD04A002AD0010E140E58
:10023000000212020919400A520A8418E501044614
:100240005443000A120A2E045043A4194219200CE8
:10025000C543AA18120C0125AD03521C52191204F1
:100260007F39240400D0521C104301D44000491EA1
:10027000C2B20C06C0092018401C4008802A02D0D7
:1002800003E0002070BD40084000002900DA002093
:10029000184370BD70B502464A40D50F40004A0071
:1002A000ED0740085208002814D0002A12D0C40DCF
:1002B000D30D41020120C0055202490A520AE41A34
:1002C000091812187D34914201D3641C00E04900E2
:1002D000002C01DA002070BD0023914201D3891A5D
:1002E0000343400849000028F7D100290AD0914271
:1002F00002D10121C90705E0914201D2012101E0AB
:100300000121C943E005C018401900F063F870BD31
:10031000420005D04200120E52428A4201DB002008
:100320007047C90508187047C217C10F504010B573
:100330004018CA079623002100F054F810BD10B5EC
:1003400000229623114600F04DF810BD41004002F6
:100350000122400AD205090E80187F2901DA002007
:100360007047962903DC9622511AC8407047963987
:1003700088407047C20FD207400040080BD0C10D23
:100380000723DB01C91840020905400A1143C208CE
:10039000400711437047002001467047CB0FDB0731
:1003A000490010B5490802460A4307D00A0D072440
:1003B0000903E401090B121B002A01DC002010BD17
:1003C000C900440F0C43C100E018D205801800F0AA
:1003D00001F810BD002904DA401C490001D1400891
:1003E0004000704770B40024050C05D110240004AF
:1003F00002D1002921D01124050E01D100020834B8
:10040000050F01D10001241D850F01D18000A41C1E
:10041000002801DB4000641C002908D020252E1B89
:100420000D46F540A14000D00121294308430106B3
:100430001B1B000ADB1D02D5002070BC7047DB05CA
:10044000181880180029F8DA401C4900F5D170BC52
:100450004008400070470000F0B507460846584085
:1004600087B0C00F049048000E4659004008490864
:10047000BC1A884105D2384631461E4617460B46FF
:1004800002465800400810434DD0300D03904005FF
:100490005900400D490D0590401A0290402873DA2A
:1004A00018030121000B09050843019004980092EC
:1004B000002806D01146019A49420020904100913F
:1004C0000190029840210A1A0199009800F0E6F97B
:1004D00005460C466B4607CB00F001FAC019714186
:1004E000039A0E0D0023D71756401A467A4016433A
:1004F00044D0049A002A2DD0029A012A039A15DCCE
:100500001205C01A914101263605001C7141D20F17
:10051000059ED2070093019202962A46234600F0D8
:10052000FEF907B0F0BD38463146FAE71605234A12
:100530000F46B218C01AB74101210905001C4F41EE
:1005400000187F41114618187941E20F10436D19C8
:10055000644113E0E2076D0815436408C2071443C1
:10056000039A01261205C01A91413605001C7141FB
:10057000CE07400830434908C01851412A46234657
:1005800000F0C0F9CDE7FFE7049801224000C11751
:10059000121A00238B4104983146C417381AA1411E
:1005A000EEE730B40124E407634030BC54E730B4D4
:1005B0000124E407614030BC4EE700000000E0FF8A
:1005C000F0B51FB488B00B990998002448400999E8
:1005D000C00F490049080991C0070B9900904900D4
:1005E00049080B9109990898A64608431CD00B9915
:1005F0000A98084318D0099801244000420D480089
:10060000410D099824050003000B204309900B9825
:100610000003000B20430B9050181C494018002287
:1006200001901446104605E0002001460DB0F0BDD3
:10063000032801DA034600E003239C46C11A0AAEF0
:100640000AE05F0008ADED5B4F00F75B7D430027DC
:10065000AA187C41491C5B1E6145F2DD410004ABD8
:100660005A522104120C0A43240C401C0828DFDBD8
:10067000019802900099704601910090059B049AA0
:100680000799069800F04BF9D0E700000DFCFFFF3A
:10069000F0B50C465C4085B0E40FE40703944C00D1
:1006A00000266408590094464908024602962243EF
:1006B00021D062460A431ED06200570D4A000E0345
:1006C0002303550D012402462C492405781B1B0BDE
:1006D000360B401823432643614600901C46501AAF
:1006E000B44103D30098401C009002E09218009897
:1006F0005B41002803DA0020014605B0F0BD002070
:10070000012109050746864611E064461D46141B73
:10071000B54106D36546521BB341744607430C43AB
:10072000A646CD0740084908284392185B41054674
:100730000D43EAD11046184313D060461946504085
:100740007140084306D06046101AB34106D2012218
:10075000002306E000220123DB0702E00122D2434E
:100760005310009874460105381C6141029C039D9A
:100770000019694100F0C6F8BFE70000FD03000062
:1007800070B54B005B0803430BD04B005C0D00269B
:1007900033466542B341D417AD1AA34102DB0020B2
:1007A000014670BD12053018514170BDFEB50023E1
:1007B0001A461B1A8A4103DB0020014603B0F0BD34
:1007C0004A000D0301212D0B0905520D0D43D107E0
:1007D00002D100186D41521E5110FF31FF3101311D
:1007E000002704463E463846009701910246012103
:1007F0000020090500F062F8C3197141F81832466B
:1008000084468E464A4161462846611A904104D387
:100810006046241A954176461F46241900986D417A
:10082000401C00903428E1DDF91930467041091B65
:10083000A84103D20022D243134601E0002213460E
:1008400001980105381C714100F05CF8B6E7000022
:1008500010B5002904DB0124E40740428C41214605
:10086000002B04DB1C460123DB075242A3418B42D1
:1008700000D1824210BD0000064C0125064E05E065
:10088000E36807CC2B430C3C98471034B442F7D3B1
:10089000FFF71AFCA0590008C059000810B5202A1B
:1008A00004DB0146203A9140002010BD91402023F6
:1008B0009C1A0346E3401943904010BD10B5202A0E
:1008C00004DB0846203AD040002110BD0B46D3403F
:1008D000D0402024A21A91400843194610BD10B5FB
:1008E000202A06DBCB170846203A1041C1170B43DC
:1008F00006E00B461341D0402024A21A9140084341
:10090000194610BD10B5002B08DA0024401C6141C7
:1009100092185B411A4301D14008400010BDF0B568
:100920001FB482B005460C0003D0084604F09EF8C0
:1009300002E004F09BF82030024600902146284651
:10094000FFF7ACFF049B059A04460F46184311437A
:10095000084314D0184610431BD0009840210A1AAF
:1009600018460599FFF7AAFF05460E46009A059915
:100970000498FFF793FF084305D0012004E02046C8
:10098000394607B0F0BD0020C11705430E432C4384
:10099000374300990E986305401A7905E40A00224E
:1009A0000C43FD0A0A3002D500200146E9E70105A3
:1009B000101969410C9C0D9D00196941FFF7A2FFB8
:1009C000DFE770B58C180578401C6B075B0F01D111
:1009D0000378401C2A1106D10278401C03E00678F7
:1009E0000E70401C491C5B1EF9D12B0705D4002357
:1009F000521E0DD40B70491CFAE70378401CCB1A29
:100A0000921C03E01D780D70491C5B1C521EF9D529
:100A1000A142D8D3002070BD10B503220F211820A9
:100A200004F028FF08221021182004F023FF0022E0
:100A30001121182004F01EFF04220F21682004F069
:100A400019FF07221021682004F014FF0022112151
:100A5000682004F00FFFFF202D3000F025F810BDB6
:100A6000002070470020704710B500220449054857
:100A700002F086FD0449034802F078FD002010BD15
:100A800038100020A0020020500C002010B50146B4
:100A9000034802F06BFD024802F041FD002010BD4A
:100AA000A00200207047000070B5044600F0CAF8AC
:100AB0000546601C02D004480078241800F0C2F8F3
:100AC000401BA042FAD370BDD0000020FCB500232B
:100AD0000124A2E027462A469F403A406FD04D6845
:100AE000012D05D0022D03D0112D01D0122D16D1CC
:100AF00085680326AC465D00AE46AE406546B5430C
:100B0000AC46CE687546AE4065462E438660466864
:100B10000D79BE43ED06ED0F9D4035434560C66837
:100B20005F000325BD40AE46AE4335468E68BE40ED
:100B30002E43C6604E68022E01D0122E14D1DE085C
:100B4000B60036180196366A5D07B446EE0E0F25DC
:100B5000B54000966646AE43B4460D69009EB5406A
:100B600066462E43019D2E6206687546AE430D799A
:100B7000AD07AD0FBD40354305604D68ED004BD569
:100B8000294D6E6B26436E639E08284DB60075197D
:100B9000AC46AD689E07360F0F27B740BD4305270B
:100BA0003F07B84201D1002715E0214FB84201D1DB
:100BB000012710E01F4FB84202D102270BE02BE0C3
:100BC0001D4FB84201D1032705E01C4FB84201D1A7
:100BD000052700E00627B7402F436546AF60184D54
:100BE0002E684F689643FF0300D516432E606E684B
:100BF0004F689643BF0300D516436E60AE684F68DA
:100C00009643FF0200D51643AE60EE684F689643E8
:100C1000BF0200D51643EE605B1C0A681546DA4039
:100C200000D057E7FCBD000000100240000001406A
:100C30000004005000080050000C0050001C005040
:100C4000000401400148806870470000D000002087
:100C500070B5024640325378202B1CD11378012BFB
:100C600019D00123137024245470046825689D430F
:100C70002560046825681E03B5432560046825685F
:100C80000D43256000680168194301602020507001
:100C90000020107070BD022070BD70B50246403259
:100CA0005378202B1BD11378012B18D001241470FA
:100CB0002423537003681D68A5431D6005682B68D5
:100CC0000F263602B3430902194329600068016800
:100CD00021430160202050700020107070BD022060
:100CE00070BD000070B5040006D025464035687818
:100CF0000026002802D005E0012070BD2E7020469D
:100D000000F05AF9242068702068016849084900F9
:100D100001600F2160680906884321680861216825
:100D20008A680120C00382438A60E1680129A168C2
:100D300008D021229202114322689160E1680229C1
:100D400002D005E00143F7E701212268C9025160A2
:100D500021684A680F4B1A434A602168CA68824377
:100D6000CA60616920690843A169090208432168D2
:100D7000C860216AE069084321680860206801684A
:100D80000122114301606664202068702663AE7002
:100D9000002070BD00800002FFB5054604464035C6
:100DA000687881B0202878D12878012875D0012072
:100DB0002870FFF747FF0746012200901923D1034F
:100DC000204601F0CFFB00283CD122206870102083
:100DD000A870002666640398606204986085666364
:100DE000618D2F48FF2903D9FF22228500903BE027
:100DF000618D218500903DE02046029901F09EFB27
:100E000016E001F0D7FB00281CD12068406A616A17
:100E10000870606A401C6062208D401E81B221858E
:100E2000608D401E6085608D002801D000290CD0A7
:100E3000608D0A9900283A462046E2D101F0FAFB7B
:100E400000281CD0012005B0F0BD009700228021B1
:100E500020460A9B01F086FB0028F3D1608DFF2815
:100E600005D9FF222285009601231B06C4E7608D69
:100E700020850096208D0123C2B25B06BCE7216865
:100E80002020C86121684A68064B1A404A60687091
:100E9000AE702E700020D6E7FFE70220D3E70000F7
:100EA0000024008000E800FEFFB5054604464035FA
:100EB000687881B0202878D12878012875D0012061
:100EC0002870FFF7BFFE0746012200901923D103C7
:100ED000204601F047FB00283CD1212068701020FB
:100EE000A870002666640398606204986085666353
:100EF000618D2F48FF2903D9FF22228500903BE016
:100F0000618D218500903DE02046029901F016FB9D
:100F100016E001F0B5FB00281CD1606A216800785A
:100F20008862606A401C6062608D401E6085208D12
:100F3000401E80B22085618D002901D000280CD090
:100F4000608D0A9900283A462046E2D101F072FBF2
:100F500000281CD0012005B0F0BD009700228021A0
:100F600020460A9B01F0FEFA0028F3D1608DFF288D
:100F700005D9FF222285009601231B06C4E7608D58
:100F800020850096208D0123C2B25B06BCE7216854
:100F90002020C86121684A68064B1A404A60687080
:100FA000AE702E700020D6E7FFE70220D3E70000E6
:100FB0000020008000E800FE10B586B00446142131
:100FC0006846FFF7C6F810492068884219D10F4CCF
:100FD000E16A02200143E162E16A01400591C0201B
:100FE00000901220012101900320029104910390AE
:100FF00069460748FFF76AFDA06B012149050843D0
:10100000A06306B010BD0000005400400010024074
:101010000004005002488168027889188160704796
:10102000D000002010B50848002401684022114378
:101030000160204600F00AF8002801D0012401E0F8
:1010400000F026F8204610BD0020024070B504468E
:101050000D4D7D202978C000FFF74CF801460B4864
:101060000068FFF747F801F08DF8002809D1042C3B
:1010700007D200222146401E00F020F800206C60BC
:1010800070BD012070BD0000D0000020DC000020F9
:101090000448416B012211434163816B02041143F7
:1010A0008163704700100240C106C90E01208840CC
:1010B000014908607047000000E100E010B501F050
:1010C000B5FB10BD10B50523DB01C3180168012273
:1010D00017249A6664010023001903704031888A3E
:1010E00010438882888A022210438882184610BDE5
:1010F000704710B50C0606D54907490F28246143EF
:101100000818283004E0282461430818FF306930AB
:1011100099B2002A06D0012202730181190C418183
:10112000002010BD00220273C180F9E728224A4343
:1011300010B512180523DB01C018D26B006F02F046
:101140001CFC10BD28224A43121810B50523FF329B
:10115000DB010132C018D26F006F02F078FC10BDC5
:1011600070B5CD094907490F0A4628235943091884
:1011700001230024002D02D028314B7002E0FF3102
:1011800069314C700A701522520185182A7A012A99
:1011900006D02B72006803F0C1F82C72002070BDDD
:1011A000022070BD70B50A074368120F9A4201D938
:1011B000012070BDCD094907490F0A46282359432C
:1011C000091801230024002D02D028314B7002E0C1
:1011D000FF3169314C708C700A70152252018518EC
:1011E0002A7A012A06D02B72006803F02BF92C72A0
:1011F000002070BD022070BDF8B503680D781C4654
:10120000AC46EE00403357048D691B8A002F29DA63
:101210001B192D4C34191B5B9C05A40DA54203D34F
:101220002B1B8B6102D00DE000238B6163460568A8
:101230009E00AB5B254F3B4001277F037B40244F43
:101240003B43AB53520609D50A78036895005A5BB5
:10125000204E32401E4E403632435A53002C30D07E
:101260000A8929E01B19184C241D34191B5B9C05A5
:10127000A40DA54203D32B1B8B6102D00DE00023EC
:101280008B61634605689E00AB5B104F3B400127B6
:101290007F037B400E4F3B43AB53520609D40A7881
:1012A00005689300EA5A0B4E3240094E40363243ED
:1012B000EA52002C05D04A8949690068234603F0A8
:1012C000A6FB2046F8BD0000020400008FBF00000E
:1012D000808000008F8F0000F8B516465706026820
:1012E000054608780C468446C000864650232046B2
:1012F000896920309B5A002F71DA9F187D4B724606
:10130000D218BA5A9205920D914213D9891AA16145
:1013100012D071040AD52F6861468E00B95BBE46B3
:10132000754F3940754F39437746B95301790129D3
:1013300009D0CEE00020A06161462846FFF7F6FE06
:10134000700472D4C5E0616989186161E169891826
:10135000E1612669216AB14203D33246881A2062CC
:1013600005E0002909D0002606710A462662607849
:10137000002805D0012825D02DE000210171F6E7D5
:1013800028685021095A08182178C9000818C0187F
:10139000002A08D03E2A0CD85108D30700D0491C97
:1013A0008902018017E00188554B194001800188AE
:1013B00004E05109D30600D1491E89020123DB0351
:1013C0001943EEE728685021095A08182178C90006
:1013D0000818C018028093B2228976E0FFE7454FD3
:1013E0009B1872463F1DD2199A5A9205920D91424E
:1013F00013D3891AA16112D071040AD42E686146F0
:101400008B00F15AB6463C4E31403C4E3143764655
:10141000F1520179012912D05BE00020A061614600
:101420002846FFF783FE700453D420782A68810091
:10143000505A314B1840314B1843505249E06169C2
:1014400089186161E1698918E1612369216A99421A
:1014500003D31A46881A206205E0002902D00A4602
:1014600000212162017161782868002902D00129D8
:1014700021D028E05021095A08182178C9000818FD
:10148000C019002A08D03E2A0CD85108D30700D032
:10149000491C8902018016E00188194B194001801E
:1014A000018804E05109D30600D1491E89020123B5
:1014B000DB031943EEE75021095A08182178C900C7
:1014C0000818C019028093B262896169286803F024
:1014D000BAFA207829688200885A074B30331840BE
:1014E0001023584020235840064B184388520020B0
:1014F000F8BD0000020400008F8F000080C00000D3
:10150000FF830000808000004907490F28225143D3
:101510000818FF30813040687047F8B5CD09490799
:10152000490F0F4628246143091801260024002D85
:1015300002D028314E7002E0FF3169314C700F70DB
:101540000A61CB704A78002A00D0CF81022B00D1EB
:101550000C711522520185182A7A012A06D02E72A2
:10156000006802F0BDFD20462C72F8BD0220F8BDD7
:1015700070B54D070C466D0F282169430918FF31DE
:1015800069318B614A610022CA614A700D7062073D
:10159000006802F0B1FF002070BD70B54B074268D3
:1015A0005B0F934201D9012070BDCD0900240122B7
:1015B000002D05D028215943091828314A7005E02B
:1015C000282569430918FF3169314C708A700B7006
:1015D00015235B01C5182B7A012B06D02A720068EF
:1015E00002F06EFF2C72002070BD022070BD70B53D
:1015F0004D070C466D0F2821694309180B64CA6317
:1016000001224C2672548B6400234B6428314A70AB
:101610000D706207006802F06FFF002070BD0000CF
:10162000F8B50446006803F0EFF9000402D520463F
:1016300001F01EF9206803F0E7F940050CD5206899
:1016400040308188524A11408180204600F01EF9C6
:101650000021204600F04CF9206803F0D5F9400441
:1016600005D52068403081884A4A11408180206831
:1016700003F0CAF9800405D5206840308188464AC5
:1016800011408180206803F0BFF9C1041720400198
:1016900004260827251800291BDA20684030018815
:1016A000B1430180206840300188B9430180287827
:1016B000012805D10020287001462046FFF718FDBB
:1016C000204600F0F7F8206840308188334A114006
:1016D0008180206803F098F9000512D52068403019
:1016E0000188394301802068403081882C4A1140AC
:1016F000818020684030018831430180204600F01D
:101700002BF9206803F080F900060BD520684030E3
:101710008188802291438180287800281CD020462F
:1017200000F01AF9206803F06FF9800508D52068E9
:10173000403081881B4A11408180204600F0D0F85B
:10174000206803F061F9C00505D520684030818824
:10175000154A11408180F8BD20684030018831432E
:1017600001802068403001883943018001202870C1
:1017700020684030808A3C21800808400521C9014A
:101780006118486601212046FFF7B2FCCAE7000055
:10179000FFFB0000FFBF0000FFDF0000FFEF0000C5
:1017A000FFF70000FFFD0000FFFE0000F0B585B070
:1017B000040007D0152040012618707A0025002863
:1017C00003D006E0012005B0F0BD3572204600F0E0
:1017D00045F803207072206802F02AFE00200127DD
:1017E0000DE02821414309190A4620325772107230
:1017F000C886D5728D63CD63401CC0B20D6461682C
:101800008142EED8002210E0282050430019014602
:10181000FF3161314D720A72CD726039FF30813013
:101820008D67CD67521CD2B2056060689042EBD8DC
:101830002146142210316846FEF772FC0FCC103C92
:1018400002F0ECFD242005557772E069012802D1F1
:101850002046FFF737FC0020B5E7000010B5006810
:10186000084988420DD10848816B0122D2051143F5
:101870008163002211461F20FFF720FC1F20FFF785
:1018800013FC10BD005C00400010024070B504461F
:1018900080680125022801D0FFF704F90520C00166
:1018A00024182946206F02F0D0F9206F02F088F941
:1018B00070BD000010B504468069002806D00748B6
:1018C000016906229143016101F0A6F90520C001DA
:1018D0002018006F02F0A1F910BD000000ED00E03B
:1018E000052110B5C9014018006F02F09DF910BD27
:1018F00010B5152252018418227A012A09D001223A
:10190000227224221154006803F096F800202072FD
:1019100010BD022010BD052110B5C90141180A6F84
:101920002B2109014118104602F09CF910BD70B539
:101930000446152040012518287A01280AD00120E4
:101940002872206803F04EF8206802F05FFD002046
:10195000287270BD022070BD10B504460520C0017C
:101960002018006F02F0BFF9A069002804D00348D6
:10197000016906221143016110BD000000ED00E085
:10198000F8B504460068614D810601D400057DD597
:101990005E4E0027403EB06BC00004D4B06B3104F3
:1019A0000843B06301275A480168C90511D401688A
:1019B000821511430160FFF745F9009005E0FFF73C
:1019C00041F90099401A642844D851480068C0057C
:1019D000F5D5316803200005626801401040884257
:1019E00005D10323A0681B051840884208D0900346
:1019F000800F032804D13068800301D50120F8BD91
:101A0000286903210904084029D00A40824202D0F3
:101A10002278920606D4A2680A4082421FD020880B
:101A200000051CD528692A6988430121C9040A4395
:101A30002A612A698A432A612861C0050FD5FFF708
:101A400001F9009008E0FFF7FDF80099411A3148CC
:101A5000814201D90320F8BD28698005F3D561686A
:101A60008803800F032805D13268000582430140B6
:101A70000A43326028690322616812041140084356
:101A80002861002F06D0B16B012000E002E00007C2
:101A90008143B1632078C00705D0E868E168800819
:101AA00080000843E8602078800705D5E8680C21AD
:101AB000884321690843E8602078400706D5E86834
:101AC00003218902884361690843E86020780007A0
:101AD00006D5E868032109038843A1690843E86043
:101AE0002078400606D5E868012189068843216AE6
:101AF0000843E8602078000606D5E86803218904D9
:101B00008843E1690843E8600020F8BD40100240C6
:101B10000070004088130000F8B50E4605007DD027
:101B200053480068C007C00FB0420AD2504801684D
:101B300049084900314301600068C007C00FB04246
:101B400071D128784B4C800705D5E068F021884397
:101B5000A9680843E0602878C00752D06868022866
:101B600017D0032818D02168012818D0890500292A
:101B700059DAE168890889000143E160FFF762F8FA
:101B800069680746022912D003291CD0012926D0F2
:101B900033E021688903EAE721688901E7E749071B
:101BA000E5E7FFF74FF8C11B3348814223D8E068CF
:101BB0000007800F0228F4D123E0FFF743F8C11B90
:101BC0002D48814217D8E0680007800F0328F4D120
:101BD00017E0FFF737F8C11B274881420BD8E068B0
:101BE0000007800F0128F4D10BE0FFF72BF8C11B91
:101BF0002148814201D90320F8BDE0680007800F29
:101C0000F3D11B480168C907C90FB1420DD901685A
:101C10004908490031430160006800E003E0C00763
:101C2000C00FB04201D00120F8BD2878400706D58A
:101C3000E068072109028843E9680843E0602878E2
:101C4000000707D5E0680721C90288432969C90050
:101C50000843E06000F016F8E168084A0906090F39
:101C6000515CC840064908600020FFF7EFF9F8BD55
:101C70000020024000100240881300009458000821
:101C8000DC00002010B5184AD1680C200840042858
:101C90000BD0082810D00C2810D050680004410F39
:101CA0000120C003491C884010BD1068C00601D542
:101CB0000E4810BD0E4810BD0E4810BD88020E4BD8
:101CC000000F185C0902D368890F491CDB0301D59A
:101CD000084A05E01268D20601D5044A00E0044A29
:101CE0005043FEF707FA10BD0010024000093D0006
:101CF0000024F40000127A00A4580008FEB5050084
:101D00007ED0FE4CE7680C20E66807400120000406
:101D100006402878C00747D0082F05D00C2F0AD1DD
:101D200001200004864206D1206880033CD5686803
:101D30000028E5D038E0012069680004814203D121
:101D400021680143216011E0052301221B04920454
:101D50009942216802D111432160F1E7814321605A
:101D60002168014000912068904320606868002845
:101D70000DD0FEF767FF009005E0FEF763FF0099C6
:101D8000401A64287AD820688003F6D50CE0FEF764
:101D900059FF009005E0FEF755FF0099401A6428AE
:101DA000F0D820688003F6D42878800755D5092319
:101DB000E868042F0DD00C2F01D1002E09D0002887
:101DC0003BD02168994301432160FEF73BFF064663
:101DD00027E02168490701D5002891D061681F22BA
:101DE000120291432A6912021143616021689943EA
:101DF00001432160FFF746FFE16809060A0F00E092
:101E0000BBE1BF49895CC840BE4908600020FFF7BC
:101E10001DF9002872D120E0FEF714FF801B022874
:101E2000B0D820684007F7D560681F2109028843B1
:101E300029690902084360600FE0206840084000FB
:101E40002060FEF7FFFE064604E0FEF7FBFE801B67
:101E5000022897D820684007F7D42878C0065FD5B5
:101E6000002F0CD0E869002849D02068FF210131FB
:101E700008432060FEF7E6FE06462DE0E4E0206819
:101E8000800502D5E8690028A7D0606807214903CA
:101E90008843696A084360606068298C0002000A10
:101EA000090608436060686A410B0120C003491CB1
:101EB0008840E16809060A0F9149895CC840914948
:101EC00008600020FFF7C2F8002817D128E0FEF7CD
:101ED000B9FE801B0228A3D820688005F7D560686A
:101EE000072149038843696A084360606068298C58
:101EF0000002000A09060843606011E023E121683E
:101F0000FF20013081432160FEF79CFE064604E07D
:101F1000FEF798FE801B02289BD820688005F7D426
:101F20002878794E000724D568690028306910D0D8
:101F3000012108433061FEF785FE009005E0FEF7C1
:101F400081FE0099401A02287ED830698007F6D5B4
:101F50000FE0400840003061FEF774FE009005E09D
:101F6000FEF770FE0099401A02286DD8306980078C
:101F7000F6D42878400764D500200290A06BC000FA
:101F800006D4A06B012109070843A0630120029039
:101F90005E480168C90511D40168821511430160CA
:101FA000FEF750FE009005E0FEF74CFE0099401A47
:101FB000642849D855480068C005F5D5FF20AA68AF
:101FC0000130824203D131690143316111E00121C5
:101FD0008902002A07D005231B029A4203D13269E5
:101FE0000A433261EFE732698243326130698843E4
:101FF0003061A86800280ED0FEF724FE009006E0AD
:10200000FEF720FE0099411A414881421CD83069F0
:102010008005F5D50DE0FEF715FE009006E0FEF711
:1020200011FE0099411A3A4881420DD83069800565
:10203000F5D40298002804D0A16B01200007814349
:10204000A1632878800600E07CE02ED53148A9699C
:102050004314002916D0A26801210A43A260626BD2
:102060000A436263016A19430162FEF7EBFD06460B
:1020700004E0FEF7E7FD801B022863D8A068800714
:10208000F7D512E0A16849084900A160016A9943A7
:102090000162FEF7D7FD064604E0FEF7D3FD801B84
:1020A00002284FD8A0688007F7D4A86A002866D015
:1020B0000C2F4DD0012636060228206805D0B043EB
:1020C0002060FEF7BFFD05463EE0B0432060FEF70E
:1020D000B9FD074604E0FEF7B5FDC01B022831D864
:1020E00020688001F7D4296BE86AE2680843696BCD
:1020F000FD231B049A43114308430DE000100240E6
:1021000094580008DC00002040100240007000409D
:102110008813000000000140E06020683043206028
:10212000FEF790FD054604E0FEF78CFD401B0228FB
:1021300008D820688001F7D521E0FEF783FD401B19
:10214000022801D90320FEBD20688001F5D416E0E5
:102150000128F8D0E06801210904EA6A01409142AF
:102160000BD10F2189042A6B0140914205D1032133
:1021700089050840696B884201D00120FEBD00201E
:10218000FEBD0000094910B5401E884201D901205A
:1021900010BD074C60610321081F00F047FB0020C1
:1021A000A06107202061002010BD0000FFFFFF009C
:1021B00000E000E0F0B502462032137E012B15D07E
:1021C000012717760223537605686C68AB68702682
:1021D000B4430E68496826438024A34319436E60C4
:1021E00000688160577600201076F0BD0220F0BDB7
:1021F00070B5040005D025462035687E002802D041
:1022000006E0012070BD00202876204600F00AF884
:1022100002206876211D206800F06CFD01206876A0
:10222000002070BD006801218907884204D103485D
:10223000816B01221143816370470000001002404E
:10224000F8B5054604462035287E012817D001261A
:102250002E7602206876226890687727FF23B8439D
:102260001B02984390600A68502A31D00EDC202A65
:102270004BD006DC002A48D0102A3AD145E0022093
:10228000F8BD302A41D0402A33D136E0602A27D029
:10229000702A12D001200003121A2AD0824228D1BB
:1022A000CB684A688968206800F05DFD2068816815
:1022B00001229203114381601BE0CB684A68896860
:1022C000206800F050FD216888683843886010E07D
:1022D000CA684968206800F0C0FD5021206806E007
:1022E000CA684968206800F0C9FD6021206800F0D4
:1022F00045FD6E7600202876F8BDCA6849682068DA
:1023000000F0ABFD40212068F1E711462068EEE7C0
:1023100030B587B0044614216846FDF71AFF012145
:1023200020688907884221D11148C26A01210A43E5
:10233000C262C26A0A400592C26A02242243C26291
:10234000C06A0025204005906A4632C205206946D1
:10235000000703950494FEF7B9FB0648694631C1AE
:102360006946054803950494FEF7B0FB07B030BDFD
:1023700000100240080C000000040050F8B50646AA
:1023800004462036307E0D4601280DD001203076DF
:10239000022070760427002A08D0042A16D0082AC2
:1023A0002AD00C2A4DD137E00220F8BD206800F079
:1023B000EDFC2068816908221143816120688169F0
:1023C000B943816120688169EA6812E0206800F001
:1023D000F5FC206882690121C9020A4382612068F4
:1023E0008169012292029143816120688169EA68D2
:1023F00012021143816124E0206800F0F8FC20689B
:10240000C26908210A43C2612068C169B943C16138
:102410002068C169EA6812E0206800F003FD2068C6
:10242000C1690122D2021143C1612068C269012140
:1024300089028A43C2612068C169EA6812021143B5
:10244000C1610120707600203076F8BD70B50400BF
:1024500005D025462035687E002802D006E0012000
:1024600070BD00202876204600F00AF80220687629
:10247000211D206800F03EFC01206876002070BD20
:10248000704710B504460068012200F05FFC206828
:1024900081684907490F062903D0016801221143C9
:1024A0000160002010BDFEE701688A69D2439207EF
:1024B00001D400228A6200688169C943C90703D038
:1024C000816901221143816170470000F7B504461C
:1024D00000680E468069C043C0062BD420272546DD
:1024E000403520688069C043800612D5701CF8D042
:1024F000FEF7A8FB0299401AB04201D8002EF0D195
:10250000606C384360646F700020A87028700120F0
:10251000FEBD21681020C8612068C7612046FFF712
:10252000C3FF20684168044A11404160606C042187
:102530000843E7E70020FEBD00E800FEF0B50668AE
:10254000059C7568064F600D384385438805800DEE
:10255000110408431843204305437560F0BD000093
:10256000FF63FF03F8B51D4617460E46044609E013
:10257000681C07D0FEF766FB0699401AA8420BD8E4
:10258000002D09D020688169304688430FD0002093
:10259000B842EDD00020F8BD616C20200143616499
:1025A000403460700020A07020700120F8BD012030
:1025B000EEE70000F7B50027202605460446403523
:1025C00028E02046029A0199FFF780FF002801D0F9
:1025D0000120FEBD20688069C043800611D42068B8
:1025E0008169C943490702D4218D002917D1C661E9
:1025F000206841680E4A1140416067646E70AF7098
:1026000013E0FEF71FFB0299411A0198814208D896
:10261000002806D020688069C0434007D1D400203C
:10262000FEBD606C304360646E702F70D0E70000B8
:1026300000E800FE70B516460D4604460FE032462F
:1026400029462046FFF742FF002801D0012070BD37
:10265000FEF7F8FA801BA84208D8002D06D02068A3
:102660008069C0438006EAD4002070BD616C2020E0
:1026700001436164403460700020A0702070E5E781
:1026800070B516460D46044611E0324629462046EE
:10269000FFF71CFF002801D0012070BD681C06D088
:1026A000FEF7D0FA801BA84208D8002D06D020687B
:1026B0008069C0438007E8D4002070BD616C202091
:1026C00001436164403460700020A0702070E3E733
:1026D00070B500231D460EE0040F0A2C02D25E00E6
:1026E000303401E05E0037348C555C006418000122
:1026F0005B1C6570DBB29342EED370BD10B50D4824
:102700000B4901600C494160002181600161416118
:1027100081610122C161C2600162FEF7E3FA00211A
:102720000448FEF795FA00210248FEF7B6FA10BDFC
:1027300000540040180200201A06100010B58AB09C
:1027400000240494059406940794089401212048D9
:10275000099400940194029489070394016005216F
:10276000C901846041607D210461C9004461C16088
:10277000FFF73EFD01200003049004A91448FFF771
:102780005FFD1348FFF762FE089408A910480994FA
:10279000FFF710FD6020009001940294002269462A
:1027A00003940B48FFF7EAFD042269460848FFF747
:1027B000E5FD082269460648FFF7E0FD0C22694660
:1027C0000348FFF7DBFD0248FFF7A2FD0AB010BD8A
:1027D0006402002010B500220F49104801F09FF854
:1027E000002801D0FEF75EF90D490C4801F0A2FA6D
:1027F000002801D0FEF756F90A49084800F0ACFE5F
:10280000002801D0FEF74EF9044801F0EFFA002845
:1028100001D0FEF747F910BD40000020A0020020C3
:10282000BC01002090000020704700008307FF22B9
:10283000DB0E9A408907090E994000280BDA000741
:10284000000F0838830808489B001818C369934391
:102850000B43C3617047830804489B001B1818682A
:10286000904308431860704700ED00E000E400E08A
:10287000FEB50446203002905EE18A881607360FC6
:1028800031D0B700C15B019109047DD5C15BAF4A6E
:10289000114080221143C153282070430519FF3590
:1028A0006935287B002870D0E87802286ED0287817
:1028B000216880000A5AA64B1A40A64B1A430A52B6
:1028C000297820688A00825A52047DD55022125AF3
:1028D000CB00A14912185918515A8905890D009148
:1028E00073D02A89D0E0D2062ED40188984A803A43
:1028F00011400122D2031143018020685021095A5E
:10290000254628350A1828789349C0004018105ADF
:102910008005800D6064E16B0818E06300212046AB
:10292000FEF704FC029800790028A5D0A8690028C9
:10293000A2D1029800798021084321684031888122
:10294000029900200871F7E02546FF3502886935B5
:10295000130520D5098A0A1828787F49C000091D67
:102960004018105A2B2183059B0DEB610901EA8861
:102970006118206802F04BF820680188734A114002
:1029800080221143018002E09AE059E068E020468D
:10299000FEF7C1FFD0E01104D5D501886B4A114084
:1029A00080221143018020685021095A6A4E09187B
:1029B0002878361DC0008019085A83059B0DEB61ED
:1029C00011D06969002901E051E04FE00BD0EA889D
:1029D000206802F01CF8E969686940186861002104
:1029E0002046FEF7AFFB20685021095A08182969D4
:1029F0008019002907D03E290BD84A08C90700D002
:102A0000521C91020DE00188544A11400180018856
:102A100004E04A09C90600D1521E91020122D203E4
:102A200011430180216808884D4A10400122120399
:102A3000504052005040474A403A104308807BE0E3
:102A400020685021095A0A182978CB004249091DEB
:102A50005918515A8905890D009119D0EA8813E057
:102A600029462046019AFEF7C7FB009010E050224D
:102A7000CB00125A38491218091D5918515A8905A4
:102A8000890D009104D06A896969009B01F0BFFF3C
:102A9000E96900980818E861696900980818686190
:102AA000A869002803D028690099884204D92978A8
:102AB0002046FEF747FB03E02946206801F01CFD95
:102AC0000198000638D5282022684643D05B31198A
:102AD0001F4B803B18400123DB031843D0532831A0
:102AE000C878022802D10198C00521D4206850225C
:102AF000125A12180878C30017481818105A8A6911
:102B00008005800D82420CD9121A8A610BD04A6965
:102B100012184A61CA691018C861206801F0ECFCFB
:102B20000AE00020886109782046FEF7FFFA03E0FA
:102B30002046019AFEF7D0FB2068014640318A8882
:102B4000120400D599E60020FEBD00008F0F0000A2
:102B50008F8F0000C080000002040000FF8300008F
:102B60008FBF0000F8B51446FDF74FFB0546204A1D
:102B700040001E49A40040081E4E1759884207DB3A
:102B800039462846FDF749FB3159FDF7EDFA30513A
:102B90001848103801592846FDF737FB3946FDF72C
:102BA00079FB0146124818300059FDF736FB0746FD
:102BB0000F48315910300059FDF72FFB06460C48DD
:102BC000294608300059FDF728FB3146FDF7CCFABD
:102BD0003946FDF7C9FA0849084A884201DD084626
:102BE000F8BD9042FCD91046F8BD0000CDCCCC3DDC
:102BF000200000200802002000003442000034C2FF
:102C00007047704710B5FEF705FA02480178491C75
:102C1000017010BD0000002010B59CB0382168463E
:102C2000FDF797FA142117A8FDF793FA24210EA8AF
:102C3000FDF78FFA194801680322D2029143C214AA
:102C40008918016022200090012006900390022044
:102C50000A9040040C900001102100240D90049172
:102C60000B946846FFF74AF80F201790032018903E
:102C7000012080021A90052000021B901994012166
:102C800017A8FEF749FF48200E90012080061690F5
:102C900014940EA8FEF774FE1CB010BD0070004026
:102CA00010480168821511430160C1680E4A114045
:102CB000C16001680D4A11400160816849084900FE
:102CC000816001680122920491430160C168FD2284
:102CD00012049143C160002101610549C00388606D
:102CE00070470000001002400C40FF88F6FFF6FE1F
:102CF00000ED00E070B5026801239B07114C124DF6
:102D0000984203D0A04201D0A84203D17026B2431A
:102D10004E683243984203D0A04201D0A84204D169
:102D200003231B029A43CB681A4380239A430B69FF
:102D30001A4302608A68C2620968816201214161A6
:102D400070BD0000000801400014014010B5CB0622
:102D5000DB0E0121046A99408C430462016A9A40A7
:102D60001143016210BD30B58468FF252D021B029E
:102D70001343AC430B432343836030BD826870230D
:102D80009A430A4307210A438260704730B5026ABA
:102D9000520852000262026A456883697024A343A4
:102DA0009C080B68A40023430224A2438C6845605E
:102DB0001443836149684163046230BD30B5026ADF
:102DC00010239A430262036A4568826973242402CD
:102DD000A2430C6824021443202293438A6845606E
:102DE00012011A43846149688163026230BD30B5C3
:102DF000026AFF2301339A430262026A4568C3698B
:102E00007024A3439C080B68A4002343012464029C
:102E1000A2438C68456024021443C3614968C163BE
:102E2000046230BD30B5026A01231B039A4302627B
:102E3000036A4568C26973242402A2430C68240211
:102E400014430122520393438A68456012031A43D4
:102E5000C46149680164026230BD30B5036A046A26
:102E60006408640004628469F025AC4312012243C3
:102E70000A24A3430B438261036230BD30B5036A69
:102E80001024A34303628469036A0F252D031203F0
:102E9000AC432243A024A343090119438261016288
:102EA00030BD70B501617F260446F6051D4611460A
:102EB0003046FDF7EFF96661E56060620020A061D1
:102EC000E061206270BDFFB5076A99B004463846DC
:102ED0001C99FDF7A2F90090E06907901B99FDF796
:102EE0009CF90546A06901210646C90748401A9980
:102EF000FDF793F92946FDF788F90099FDF785F963
:102F00000021C943FDF704FA054638461B99FDF731
:102F100084F900901C990798FDF77FF90290606989
:102F200008901A99FDF779F90299FDF71DF90099B2
:102F3000FDF76BF90021C943FDF7EAF90490384623
:102F40001A99FDF76AF9009030461C99FDF765F96A
:102F500007461B990898FDF760F93946FDF755F9C2
:102F60000099FDF701F90021C943FDF7D1F903905C
:102F70001A990798FDF751F9074630461B99FDF756
:102F80004CF906461C990898FDF747F93146FDF7BC
:102F9000EBF83946FDF739F90021C943FDF7B8F9D7
:102FA000064622984000000E07D123984000000EEC
:102FB00003D124984000000E7CD024990846FDF7E8
:102FC0002CF9009023990846FDF727F92299074626
:102FD0000846FDF722F93946FDF7C6F80099FDF7D6
:102FE000C3F802F025FB074601462298FDF715F9C4
:102FF000229039462398FDF710F9239039462498FA
:10300000FDF70BF92490676901213846FDF780F937
:103010001690A06901210E90FDF77AF91590E069EC
:1030200001210C90FDF774F91490206A012107909A
:10303000FDF76EF9179002213846FDF769F9069001
:1030400002210E98FDF764F9029002210C98FDF719
:103050005FF9089003210E98FDF75AF90F900321AC
:103060000C98FDF755F939460B900846FDF7D5F851
:1030700013900E990846FDF7D0F80C990190084678
:10308000FDF7CBF8079900900846FDF7C6F80A90BF
:1030900023991598FDF7C1F8109001990698FDF74E
:1030A000BCF8119022991498FDF7B7F807460099DB
:1030B000069800E0F5E0FDF7B0F83946FDF754F862
:1030C0001199FDF751F81099FDF79FF80690249992
:1030D0000298FDF7A2F80D9000990F98FDF79DF862
:1030E000109001990F98FDF798F811902399169870
:1030F000FDF793F8129002211398FDF709F9189043
:103100000E99FDF78AF8074622991798FDF785F87A
:1031100013900A990298FDF780F81399FDF775F856
:103120003946FDF721F81299FDF76FF80299FDF77E
:103130006CF81199FDF718F81099FDF715F80D992D
:10314000FDF712F8029024990898FDF766F80E90A2
:1031500000990B98FDF761F80F9001990B98FDF716
:103160005CF8109023991798FDF757F80B900A997F
:103170000898FDF752F80A9022991698FDF74DF835
:1031800007460C991898FDF748F83946FCF7ECFF0C
:103190000A99FCF7E9FF0B99FDF737F80899FDF755
:1031A00034F81099FCF7E0FF0F99FCF7DDFF0E995A
:1031B000FCF7DAFF089023991498FDF72EF80A908F
:1031C00002210098FDF7A4F80799FDF726F80746B5
:1031D00022991598FDF721F80B9002210198FDF72F
:1031E00097F80799FDF719F80B99FDF70EF839468E
:1031F000FCF7BAFF0A99FDF708F807460146FDF704
:103200000CF8089907900846FDF707F80299009016
:103210000846FDF702F80B9006990846FCF7FDFFFB
:103220000B99FCF7A1FF0099FCF79EFF0799FCF7AB
:103230009BFF02F0FDF9014600900698FCF7EDFFB8
:10324000069000990298FCF7E8FF02900099089810
:10325000FCF7E3FF089038460099FCF7DEFF019089
:10326000276906993846FCF7D8FF2946FCF7D1FFB5
:10327000054638460299FCF7D0FF0499FCF7C9FFD0
:10328000049038460899FCF7C8FF0399FCF7C1FF82
:10329000039038460199FCF7C0FF3146FCF7B9FFAF
:1032A0000646606A009001462846FCF7B6FF616951
:1032B000FCF75AFF6061059000990498FCF7ADFF98
:1032C000A169FCF751FFA061074600990398FCF73C
:1032D000A4FFE169FCF748FFE0610546304600992C
:1032E000FCF79BFF216AFCF73FFF01462062FCF7D9
:1032F00094FF294602900846FCF78FFF05463946A1
:103300000846FCF78AFF059906460846FCF785FF44
:103310003146FCF729FF2946FCF726FF0299FCF706
:1033200023FF02F085F9054629466069FCF775FF21
:1033300060612946A069FCF770FFA0612946E06939
:10334000FCF76BFFE0612946206AFCF766FF20620C
:10335000204601F063FF1DB0F0BDF8B5064605201C
:10336000C0013018046980690D46002C1ED014215C
:1033700069438F19FA69002A08D02821694308187F
:10338000816B1046FCF7B6FE002906D0FF34002002
:10339000FF34023460610020F8BD0020034602467D
:1033A000F8612946304600F0A7FCF4E70220F8BD9A
:1033B00070B50522D20185182C6900F08FFBE11D44
:1033C000FF31FA31C8602869002808D04868696967
:1033D000CA688321890061189047002070BD0220CF
:1033E00070BD70B504460026812100F0BCFA0025AE
:1033F00001212046E56200F0B6FAFF205930055160
:103400008221204600F0AFFA0520C001256424186F
:103410002069002806D0606940688047206900F074
:1034200059FE2561304670BD052110B5C90140180F
:1034300043690169002B0AD0CC1DFF34FA3420788F
:10344000FF2804D09B6862789847FF2020700020F6
:1034500010BD00000A21018000487047E4000020F0
:10346000432101800048704734010020432101803E
:1034700000487047F0000020432101800048704759
:1034800078010020F8B50546007CEF1D0026F937CD
:103490000124002833D0402302228121284600F055
:1034A00078FB4023EC6202220121284600F071FBE8
:1034B0000823032282212846BC6500F06AFB87208E
:1034C00080002C6400F008FE0521C901691808611C
:1034D00000281FD00446486900688047FF34002058
:1034E000FF3402346061A061287C6268002813D038
:1034F00040230121284600F059FB3046F8BD012346
:103500005B0202228121284600F043FB01235B027B
:10351000EC62C8E70126F0E701235B02E9E7052139
:1035200010B5C90141180969002913D0027C002A8D
:1035300009D0FF31FF3102314A684023012100F0F8
:1035400035FB002010BDFF31FF31023101235B024A
:103550004A68F3E7022010BD02460220002904D089
:103560000520C00110184161002070470522D201DA
:1035700080180069FF30FF30023041600020704742
:103580000523DB01C0180069FF30FF300230026103
:10359000816000207047FEB5074605200C46C0013B
:1035A000391800206A460E69107090800546207810
:1035B0006022024022D0202A3DD1E288002A16D083
:1035C000000607D5496960788B6831469847E288DC
:1035D000314629E0F01DFF306178FA300170A179A1
:1035E0004170E2883146384600F04FF828E04969DA
:1035F00060788B6800222146984721E0132061788B
:1036000040013818002904D00A2908D00B2912D10A
:103610000EE0007D03280ED1022201A904E0007D06
:10362000032808D101226946384600F04AF807E02D
:10363000007D032804D02146384600F01CF80225FE
:103640002846FEBD052210B5D2018218D268526804
:103650009047002010BD134610B50A46002100F027
:10366000A5FA002010BD134610B50A46002100F04F
:1036700043FB002010BD10B50446802100F01FFB65
:103680000021204600F01BFB10BD10B59B23032436
:103690009B001C50C31DF9339A64DA6413460A4632
:1036A000002100F083FA002010BD10B59B210522F7
:1036B00089000A5000231A46194600F077FA0020C4
:1036C00010BD10B59B2302249B001C50C261134601
:1036D00002620A46002100F00FFB002010BD10B569
:1036E0009B21042289000A5000231A46194600F043
:1036F00003FB002010BD000010B50A46024903A0DC
:1037000000F0DEF8004810BD500A0020434443207A
:10371000436F6E666967000012200880004870479A
:103720006000002010B50A46024903A000F0C8F866
:10373000004810BD500A002043444320496E746580
:1037400072666163650000000420088000487047CD
:103750005C00002010B50A46024903A000F0B0F852
:10376000004810BD500A002053544D6963726F65C4
:103770006C656374726F6E696373000010B50A46FE
:10378000024903A000F09CF8004810BD500A002038
:1037900053544D3332205669727475616C20436FF7
:1037A0006D506F727400000010B51A20088009482F
:1037B000446901698069081809D008220649FEF7A2
:1037C00087FF0549042210312046FEF781FF024899
:1037D000801E10BD4000F81F76000020F8B50D4691
:1037E0000446498805200A0AC0012018130001F088
:1037F00054F9084505091645453A42458068237C39
:1038000002682BE0217C0226C068002905D0C16A2D
:1038100068468847014646703CE0816AF8E7C9B2CD
:103820000B0001F03AF90604080C1014182B8068FC
:10383000237C426812E08068237C82680EE0806806
:10384000237CC2680AE08068237C026906E0806805
:10385000237C426902E08068237C826969461846BD
:103860009047014616E0217C002907D1C068416BD2
:1038700068468847F5E7217C002904D02946204680
:10388000FFF7F9FEF8BDC068016B6846884707225C
:10389000014642706846008800280AD0EA88002A5B
:1038A0000AD0824200D90246684602802046FFF7CD
:1038B00008FFE8880028E5D12046FFF710FFF8BD93
:1038C00070B5002300281DD00446002502E06D1CC1
:1038D000EDB2641C2678002EF9D16C00A41C148073
:1038E0001278CA5403225B1CCA5400245B1C06E0F5
:1038F000CA545B1CDAB28C54521CD3B2401C0278FE
:10390000002AF5D170BD01460020002904D001290C
:1039100001D0022901D0022070470120704710B564
:10392000002814D00523DB01C318DC68002C01D06B
:103930000024DC60002900D0996013235B01012181
:10394000C3181975027000F0D1F8002010BD0220D4
:1039500010BD052210B5D20180188069FDF722FC48
:10396000FFF7D1FF10BD052210B5D2018018806984
:10397000FDF7F6FBFFF7C7FF10BDFEB504461320A9
:10398000400125180520C001201813460190002988
:1039900008D0C0684269002A02D0287D032852D08E
:1039A0000220FEBDE61DFF36FA362046F16E1430C9
:1039B000022904D004293CD000293AD03DE0026914
:1039C000C1680092914207D9891AC1608AB219462A
:1039D0002046FFF748FE13E0806811460746FCF7D3
:1039E00089FB002913D10098874210D3306F87429A
:1039F0000DD2002211462046FFF735FE0020306729
:103A000000231A461946204600F0D0F815E0019828
:103A1000C068C168002904D0287D032801D1204650
:103A200088478021204600F04AF92046FFF73DFEF6
:103A300003E08021204600F042F9287E012804D1CD
:103A40000020287601E0204690470020FEBD70B59A
:103A5000044613204001231805201546C0012218F2
:103A6000002908D0D0688269002A02D0187D032876
:103A700030D0022070BD2046FF3041300146C031B9
:103A8000CE6E032E02D0052E1DD025E0C66801693A
:103A90008E420BD9731AC3600846834200D3034693
:103AA0009AB229462046FFF7D6FD15E0D068016995
:103AB000002904D0187D032801D1204688472046DC
:103AC000FFF70DFE08E00020C8660146204600F022
:103AD000F6F801E020469047002070BD052210B5A1
:103AE000D20180188069FDF70FFD10BD10B51D498A
:103AF00005220867D20184181B491C48A16108608F
:103B00000820486002208860086100208861C86140
:103B100008620846FDF74AFE002801D0FCF7C2FF04
:103B2000002218231146A069FDF7E3FA582300226A
:103B30008021A069FDF7DDFAC02300228121A06960
:103B4000FDF7D7FAFF23113300220121A069FDF709
:103B5000D0FAFF23013300228221A069FDF7C9FAC0
:103B6000002010BDDC0900205C070020005C004044
:103B7000CA094906490E282359431B01C018806908
:103B80000818002A01D0203001E0FF306130807A2F
:103B9000704710B51C460523DB01C0181346806929
:103BA0002246FDF7BAFCFFF7AEFE10BD10B50524A6
:103BB000E40100198069FDF7DBFCFFF7A4FE10BDEE
:103BC00070B50022044640231146FFF7E2FFE01DD6
:103BD0004026F930012506654564334600228021E0
:103BE0002046FFF7D6FF1320400166622018A5612A
:103BF0000575E01DFF300021FA30C1666160C167C4
:103C00000520C00120180169002904D0C0680021E6
:103C1000426820469047002070BD1321490140189A
:103C2000417D017500207047132110B549014118ED
:103C3000097D032907D10521C9014118C968C9694E
:103C4000002900D08847002010BD01740020704773
:103C5000052210B5D20180188069FDF749FEFFF7F3
:103C600052FE10BD70B505460520C0012818044657
:103C700000F04CF8E81DFF300121FA30C166E288FF
:103C800002672078C106C90E0AD001290DD0022989
:103C900010D0C109C901284600F011F8002070BDFC
:103CA0002146284600F0A7F8F8E72146284600F00C
:103CB000E4F9F3E72146284600F027F9EEE705226C
:103CC00010B5D20180188069FDF767FCFFF71BFE75
:103CD00010BD052110B5C90140188069FDF727FE08
:103CE000FFF711FE10BD132149014018017D4175F8
:103CF000042101750020704710B50524E401001966
:103D00008069FDF774FCFFF7FEFD10BD0A780270B4
:103D10004A784270CB788A781B02D21842804B795D
:103D20000A791B02D21882808A79C979090251184E
:103D3000C180704702460020002904D00523DB0122
:103D4000D218D160704702207047052210B5D20109
:103D50008218D2680224002A04D0126890470028F2
:103D600000D10024204610BD70B50E4689781E4C47
:103D700005462170012904D931462846FFF77BFC0E
:103D800070BD132040012818027D022A0AD0032AA0
:103D90000ED031462846FFF76EFC21782846FFF703
:103DA00051FC70BD002913D00322696002750AE03E
:103DB000002911D0686888420AD0C1B22846FFF7AE
:103DC00041FC217869602846FFF7BFFF0228D3D065
:103DD0002846FFF784FC70BD022202752846696000
:103DE000FFF730FCF4E70000E000002010B5FFF71B
:103DF00070FF002010BDF8B5002200920A78602301
:103E00001A400AD0202A01D0402A73D10522D201BB
:103E10008218D268926890476EE013234F78C21DD3
:103E20005B01FF32C51800240126FA323B0000F086
:103E300034FE0A3F5A6155610906612C2961FFF77A
:103E4000CDFC59E004468888002819D1C88800288C
:103E500016D14888802813D24706287D7F0E032874
:103E60000ED0AF7539462046FFF7F2FE2046FFF729
:103E700036FC002F02D0022028753DE02E753BE075
:103E8000204637E0FFF770FF36E0CA88012A31D1BB
:103E90002A7D012A04D0022A02D0032A2AD104E072
:103EA000012201460831846015E00122011D12E063
:103EB0002B7D012B03D0022B01D0032B1AD1CB88F1
:103EC000022B17D1C660D16F002901D00321C16038
:103ED000014602220C31FFF7F4FB0DE0498801296D
:103EE0000AD1D6670EE02B7D012B07D0022B05D01F
:103EF000032B03D0FFF7BFFB0098F8BD49880129C9
:103F0000FAD1D467FFF7EBFBF6E7F8B50A4613786A
:103F1000044660201D4605400520C00100270979A0
:103F20002018002D09D0202D01D0402D7AD1C06855
:103F300011468368204698479DE05B069B0F012B46
:103F40000AD01320537840012018002B3BD0012BBE
:103F50002BD0032B66D105E0C0681146836820464C
:103F60009847F8BD007D022802D003287FD10BE0DE
:103F700000297CD080297AD02046FFF7A0FE80213E
:103F80002046FFF79CFE76E05088002809D10029E2
:103F900007D0802905D0D088002802D12046FFF71D
:103FA0008EFE2046FFF79BFB65E0007D0228DFD0F8
:103FB00003285CD1508800285DD14806F1D0204606
:103FC000FFF7C7FCEDE7007D0026022802D003289A
:103FD0004DD116E0002901D0802948D1C80906D06A
:103FE0004806400E142148430119143106E04806E2
:103FF000400E142148430119FF31413102220E6065
:1040000031E0C8090FD00807000F142358430019E6
:10401000806900282BD04806400E14225043051911
:10402000143511E023E00807000F1423584300194A
:10403000FF300130406C002819D04806400E142291
:1040400050430519FF354135002909D0802907D093
:104050002046FFF78DFD002802D00120286000E0F7
:104060002E60022229462046FFF72BFB03E0114673
:104070002046FFF700FB3846F8BD70B505460C46F4
:1040800008786021084003D0202801D040281BD1A7
:10409000132040012818007D012803D0022801D0F8
:1040A000032811D1207901280ED80520C001281835
:1040B000C0682146826828469047E188014307D1BD
:1040C0002846FFF70CFB03E021462846FFF7D3FA0A
:1040D000002070BD70470000004870473C0500207C
:1040E000F0B5002294460A789400035B844A13409A
:1040F000CA78002A5BD0012A60D0022A03D0032AA2
:1041000058D0012294467F4A134303530D78AE00E2
:10411000845B7D4B1C402C43144384537A4D0E7BAF
:10412000044630354034002E4BD00E78B700C65BC5
:10413000BE46764F1E403E437746C653268A0F78CA
:104140003618FF00BF190126B602BE190F897F0875
:104150007F003780248A0E782418F600361954110F
:1041600034194E897608760026804C78002C0C781D
:104170006FD0A600845B640404D5845B644F1C404C
:104180003C4384530C78A600845B640605D5845BAD
:104190001C405C4B40331C438453CB78012B0B7881
:1041A0007BD09C00035B2B4020256B409BE00122D1
:1041B000520201E0032252021343A4E701229202B9
:1041C000FAE74E78002E24D0248A0E782418F600C0
:1041D00036190124A4023419CE8876087600268088
:1041E0000C78A600845B640605D5845B1C40454BB7
:1041F00040331C438453CB78012B05D009788B00C6
:10420000C15A2940202446E009788B00C15A294030
:1042100071E0258A0E782D18F60076193D4D751936
:10422000CE88760876002E80248A0D782418ED003A
:104230002C19384D0127AD1C64190D69FF03002DA1
:1042400008D03E2D0CD86E08ED0700D0761CB502C4
:104250000CE023E02588304E35402580258804E099
:104260006E09ED0600D1761EB5023D4325800C781F
:10427000A500445B640404D5445B1C40244B1C43F0
:10428000445309788B00C15A214CF13C2140012450
:1042900024036140640061402DE021E0A600845BBE
:1042A000640404D5845B1A4F1C403C4384530C784F
:1042B000A600845B640605D5845B1C40114B40332B
:1042C0001C4384530B789C00035B114EF13E33403A
:1042D000012636037340760073401343035393E77C
:1042E0009C00035B2B401343035309788B00C15A96
:1042F000074CF13C21401143C1526046F0BD000023
:104300008F890000808000008F8F00008081000076
:1043100080C0000004040000FF830000F0B50A78AC
:104320000F7B374B4E78374D374C9200002F22D001
:10433000002E865A41D0760403D5865A26402E4355
:1043400086520A789600825B520605D5825B2C4F16
:10435000224040373A4382530A789600825B2240DB
:104360002A4382530A789400025B274D30352A4055
:104370001A43025317E0002E0ED0855A6D0605D55C
:10438000855A25401E4C40342543855209788A00C1
:10439000815A1D4C30340BE0865A760403D5865A78
:1043A00026402E43865209788A00815A154CF13CEA
:1043B0002140194381520020F0BD760403D5865A6E
:1043C00026402E4386520A789500425B520605D558
:1043D000425B0B4E22404036324342530A789500EE
:1043E000425B2240064C4034224342530A789400F8
:1043F000025B044DF13D2A401A430253C6E7000018
:104400008080000080C000008F8F00004030018B52
:104410000122D20311430183002070470121403063
:1044200001800021018081800182084670470000E0
:104430004030034902888A43028000207047000010
:1044400080BF000030B50A7B002A30D14A78194D70
:10445000002A194B0A7814D09400025B520605D545
:10446000025B2A40144D40352A430253CA78012A80
:104470001DD009788A00815A0E4C30342140202406
:1044800012E09400025B520404D5025B2A400B4DFB
:104490002A43025309788A00815A084CF13C214092
:1044A00001242403614064006140194381520020CB
:1044B00030BD00008F8F00008080000080C00000B1
:1044C00010B54A780978094B8900002A425A03D06E
:1044D000074C2240102403E0064C22400124240310
:1044E00062401A434252002010BD0000808000004C
:1044F000BF8F00008FBF0000F0B50D464A78074619
:10450000097B40370446012A08D000297DD0E8788D
:1045100002287BD001287AD00120F0BDAE6928693D
:10452000864200D90646002910D0E97802291DD01C
:1045300028788100615A4906398A69D50919C0006D
:104540004118FE48081806806A892BE1B3B2EA8850
:104550002046696900F077FA388A29780019C9007D
:104560000918F648001F0818068036E1296A8142BA
:10457000287870D98100605AF14A1040F14A1043FE
:104580006052286A801B286228788100615A490697
:10459000697876D5002902D0012920D026E0398A11
:1045A000C00009194118E5480818002E08D03E2E11
:1045B0000CD87108F20700D0491C8902018015E06F
:1045C0000188E14A11400180018804E07109F20686
:1045D00000D1491E89020122D2031143EEE73A8A33
:1045E000C00011194118D548081806806A89B3B26D
:1045F0002046696900F027FA6869801968612969AD
:10460000286A884205D9801B05E0F0E00FE179E1D6
:10461000C0E00646002028626878002802D0012801
:1046200023D02BE0388A29780019C9000918C3481B
:10463000001F0818002E08D03E2E0DD87108F20772
:1046400000D0491C8902018018E00188BE4A11404F
:104650000180018805E08AE07109F20600D1491E57
:1046600089020122D2031143EDE7388A2978001923
:10467000C9000918B148001F081806802A8970E08F
:10468000FFE7002902D0012921D028E0398AC000A3
:1046900009194118A948001F0818002E08D03E2EFD
:1046A0000CD87108F20700D0491C8902018016E07D
:1046B0000188A54A11400180018804E07109F206D1
:1046C00000D1491E89020122D2031143EEE7398A43
:1046D000C000091941189948001F081806802A8946
:1046E000B3B22046696900F0AEF968698019686163
:1046F0002969286A884201D9801B01E0064600200A
:1047000028626878002802D0012821D028E0388A61
:1047100029780019C900091888480818002E08D0FF
:104720003E2E0CD87108F20700D0491C8902018086
:1047300016E00188844A11400180018804E0710973
:10474000F20600D1491E89020122D2031143EEE78D
:10475000398A08192978C900091878480818068084
:104760006A89B3B22046696900F06DF935E08200CC
:10477000A05A764B1840764B1843A052388A2A78B4
:104780000019D20012186D488BB2001F1018038058
:104790002A89E7E70919C00041186848001F08186E
:1047A00006802A89B3B22046696900F04CF968781E
:1047B000002802D0012808D00FE028788100605A34
:1047C0005F4A1040624A403205E028788100605A12
:1047D0005B4A10405F4A1043605228788100605A5B
:1047E000574A30321040102250402022E4E0A9699C
:1047F0002869814201D9091A01E008460021A9610E
:10480000398A2A780919D20052184C4951180028BF
:1048100076D03E2875D94209C00602D002E0900247
:10482000C0E0521E90020122D2031043BAE0002AD7
:1048300012D1388A29780019C90009183F48001F89
:104840000818296900290DD03E2911D84A08C9073E
:1048500000D0521C910201806878002811D00128F4
:1048600045D020E00188384A11400180018804E0E9
:104870004A09C90600D1521E91020122D2031143F6
:10488000E9E7388A29780019C90009182B4808185F
:10489000296900291CD03E2920D84A08C90700D020
:1048A000521C91020180E86900287CD028788100A0
:1048B000605A420401D5420602D4274A104272D1FE
:1048C000605A1F4A1040224A4032104360526AE048
:1048D00001881D4A11400180018804E04A09C90687
:1048E00000D1521E91020122D2031143DAE7398A24
:1048F00008192978C900091810480818298AD1E729
:1049000044E049E0A9692869814201D9091A01E016
:1049100008460021A961002A22D1398A2A7809197A
:10492000D20052180549091F511800281FD03E28EF
:1049300023D84208C30700D0521C0FE00604000031
:104940008F8F000080810000FF8300008F8E0000A9
:104950008080000080C000004040000092020A8079
:104960006978002900D14BE701292BD01BE00A8888
:10497000184B1A400A800A8804E04209C30600D195
:10498000521E92020123DB031A43E8E70888114A0A
:1049900010400880088846E74208C00700D13EE77B
:1049A000521C3CE7088028788100605A0A4A10406F
:1049B00001221203504052005040084A10436052F6
:1049C0000020F0BD3A8A11192A78D2005218044901
:1049D0005118E7E7FF8300008FBF000080800000D0
:1049E000060400000021403081800249018000203F
:1049F0007047000080BF000010B50248FCF710FEB1
:104A000010BD00005C07002040308088704780188F
:104A100010B5012292025C088018002C07D0028891
:104A20000A70120A4A70801C891C641EF7D1DA07CA
:104A300001D00088087010BD002902D180214030CB
:104A4000818100207047801801225B1C920210B502
:104A50005B088018002B08D04A780C781202224399
:104A60000280801C891C5B1EF6D110BD2021020C27
:104A700001D010211046020A01D01046083902095F
:104A800001D01046091F820801D01046891E420835
:104A900001D0881E7047081A704730B47446641EEF
:104AA0002578641CAB4200D21D46635D5B00E318B1
:104AB00030BC18474900CA020243100000D004204D
:104AC0004A0D01D001221043044A490D914201D1FF
:104AD00002210843012800D105207047FF0700008C
:104AE000F8B504464F1EC8000838211815461E4662
:104AF000086849683A4606239A4310D02A46334646
:104B0000FBF75EFD3A46D200083AA3181A687F1EEA
:104B10005B68FBF7A1FC06223B469343EED1022FD4
:104B200023D0042F11D0062F2FD12A463346FBF76E
:104B300047FDE36AA26AFBF78FFC2A463346FBF780
:104B40003FFD636A226AFBF787FC2A463346FBF780
:104B500037FDE369A269FBF77FFC2A463346FBF782
:104B60002FFD63692269FBF777FC2A463346FBF782
:104B700027FDE368A268FBF76FFC2A463346FBF784
:104B80001FFD63682268FBF767FCF8BD10B50122C2
:104B9000FBF7F6FD10BD10B5FBF75EFC10BD002263
:104BA00010B5134610461146FBF772FD10BD00000C
:104BB000034A10B500201107FBF7E2FD10BD00000D
:104BC00001FDFFFF02E008C8121F08C1002AFAD148
:104BD00070477047002001E001C1121F002AFBD17D
:104BE000704700000149086070470000F401002090
:104BF000F0B504464F008E488FB07F080D460D91EA
:104C0000874228DB4042381820430CD0894887422D
:104C100003DC874218D1002C16D020462946FFF726
:104C2000B5FF0FB0F0BD844A844B20462946FBF700
:104C3000C7FC07460E46824A824B20462946FBF7B0
:104C4000BFFC3A46334649E00120FFF7CBFFFFF7B0
:104C5000A6FF0FB0F0BD7C48874243DAF9208005FB
:104C600087420BDA20462946FFF724FF042801D1AA
:104C7000FFF79EFF204629460FB0F0BD22462B4687
:104C800010462946FBF79CFC064602466F480F4635
:104C90000B4606217844FFF723FF32463B46FBF7DD
:104CA0008FFC06906A48079132463B4604217844BF
:104CB000FFF716FF32463B46FBF782FC00225C4BB7
:104CC000FBF7CAFB02460B4607990698FBF7E0FC88
:104CD00022462B46FBF774FC22462B46FBF7BCFB17
:104CE0000FB0F0BD2046524C69004908002223460F
:104CF000FBF75DFC0022D243FBF742FD054602466E
:104D000054480E460B4606217844FFF7E9FE2A4632
:104D10003346FBF755FC06904F4807912A46334629
:104D200004217844FFF7DCFE2A463346FBF748FCB3
:104D300000222346FBF790FB05910490284631465C
:104D400000F074FD089045480C46874219DB059B2E
:104D5000049A07990698FBF79BFC02460B462146EE
:104D60000898FBF72DFC2346089AFBF775FB0122F8
:104D7000FBF706FD304A314BFBF713FC304A314B51
:104D80004AE000273A460B460898FBF765FB3A468F
:104D900023460A910E9010461946FBF711FC2A464D
:104DA0003346FBF704FC0A9B0E9AFBF771FC0546A1
:104DB0000E46059B049A07990698FBF769FC00913B
:104DC0000490012228463146FBF7DAFC1A4A1B4BB5
:104DD000FBF7EDFB0E460546012221460898FBF73E
:104DE000CFFC009B049AFBF7EBFB2A463346FBF70C
:104DF000D8FB05460E46012238462146FBF7C0FC8B
:104E00000F4C174F22463B46FBF7D1FB2A46334651
:104E1000FBF7CDFB22463B46FBF7C9FB0D9A002A68
:104E200000DD5DE70122D20751400FB0F0BD000068
:104E30000000F03F0000F07F075C143326A6913C91
:104E4000182D4454FB21F93F0000E03F180C0000EE
:104E50002E0C0000A40B0000BA0B00003333EF3F10
:104E6000FB21E93FF0B589B004460D4648000691A4
:104E700072494008884215DB7149884203DC884248
:104E800007D1002C05D020462946FFF77FFE09B048
:104E9000F0BD6C48002D02DD6B4909B0F0BD6B49D7
:104EA00009B0F0BD6A49884211DA6A4988420BDAD2
:104EB00020462946FFF7FEFD042801D1FFF778FEC2
:104EC0002046294609B0F0BD0026F6435DE06D009E
:104ED00061496D08884232DA6049884219DA002651
:104EE000012332469B0720462946FBF7B5FA0746C1
:104EF0000191012220462946FBF742FC0022584B33
:104F0000FBF74FFB3A46019BFBF7C2FB04460D46FD
:104F10003BE001260022524B20462946FBF79CFA33
:104F20000746009100224E4B20462946FBF739FBED
:104F30003A46009BFBF7ACFB04460D4625E0494989
:104F4000884219DA02260022474B20462946FBF701
:104F500037FB0022424BFBF77FFA07460291002203
:104F6000414B20462946FBF71CFB3A46029BFBF7C8
:104F70008FFB04460D4608E0032622462B46002000
:104F80003A49FBF785FB04460D4622462B46104660
:104F90001946FBF715FB07460B4602460191FBF746
:104FA0000FFB0246029032480B46039106217844DB
:104FB000FFF796FD3A46019BFBF702FB00902D4858
:104FC000019105217844039B029AFFF789FD039B19
:104FD000029AFBF7F5FA02460B4601990098002E5B
:104FE0000BDAFBF739FA22462B46FBF7E9FA2246A1
:104FF0002B46FBF7DCFA09B0F0BDFBF72DFA224691
:105000002B46FBF7DDFA1C4AF6007A4493191A681E
:105010005B68FBF7C6FA22462B46FBF7C2FA174A33
:105020007A4493191A685B68FBF7C1FA069A002A5A
:10503000E1DA0122D207514009B0F0BD000010446E
:105040000000F07F182D4454FB21F93FFB21F9BFEC
:105050000000DC3F0000203E0000F33F0000E63F80
:105060000000F03F008003400000F83F0000F0BF68
:10507000B60900007809000012090000DC080000F1
:10508000F0B51FB4039A029D53006E422E4394461E
:10509000F40F5B084A00574E52081C438E46B44238
:1050A00005D847420743FC0F1443B44205D92A46AA
:1050B0006346FFF770FD05B0F0BD4F4E66442E43CA
:1050C0000AD0CC0F6646B61702273E402643044658
:1050D0004A4F144304D00BE0FFF7C4FE05B0F0BD07
:1050E000002EFBD0012EF9D0022E32D0032E34D068
:1050F0001C462C430BD03F4CA34216D1A2420AD1EE
:10510000012189078B438A43114603930DE07046C2
:1051100000280FDB25E03A4D7D44002E0ED0012EF5
:1051200010D0022E15D0032E17D0A2421DD17046EA
:10513000002816DA3148334905B0F0BD696828689F
:1051400005B0F0BD01226968D2072868514005B05A
:10515000F0BD38462C4905B0F0BD38462B4905B0A6
:10516000F0BD26482A4905B0F0BDD21A12153C2AD6
:1051700002DD224D264C12E06346002B05DA3C236B
:10518000DA4202DA00252C4609E0039B029AFBF77B
:105190007FFA49004908FFF765FE05460C46002ED8
:1051A00012D0012E0DD01B4A1B4B022E2846214641
:1051B00018D0FBF7F6F93A46134BFBF7F2F905B0B6
:1051C000F0BD0120C0074440002213462846214676
:1051D000FBF73EFB02D10220FFF704FD28462146E3
:1051E00005B0F0BDFBF7DDF93A46074BFBF7DFF9F9
:1051F00005B0F0BD0000F07F000010C0182D445431
:105200007C080000FB21F9BFFB210940FB2109C0FC
:10521000FB21F93F075C143326A6A13CF8B5C7690A
:10522000044639463846FAF7F8FF0546A06900906B
:105230000146FAF7F2FF3F210906FAF7EAFF29468D
:10524000FAF7E3FFFBF796F805460E463846216A63
:10525000FAF7E3FF074660690099FAF7DEFF39467F
:10526000FAF782FFFBF786F82A463346FFF708FF76
:10527000FBF794F82060E1696069FAF7CEFF054614
:10528000216AA069FAF7C9FF2946FAF7BEFF032190
:105290008907FAF7C2FFFBF76DF8FFF7A9FCFBF7E8
:1052A0007DF86060206A00900146FAF7B6FFE76972
:1052B000054639463846FAF7B0FF3F210906FAF7A6
:1052C000A8FF2946FAF7A1FFFBF754F805460E465A
:1052D00060690099FAF7A1FF00903946A069FAF7D2
:1052E0009CFF0099FAF740FFFBF744F82A46334643
:1052F000FFF7C6FEFBF752F8134E0546314620680D
:10530000FAF78BFF206031466068FAF786FF60602D
:1053100031462846FAF781FFE168FAF776FF0B4E2F
:105320000B4D0146A060B04204D93046FAF76DFF3C
:10533000294605E02846814205DDFAF766FF314639
:10534000FAF767FFA060F8BDE12E6542000034C3A4
:1053500000003443F8B580223621182000F08AFA84
:1053600020223721182000F085FA2022362118202B
:1053700000F080FA3621182000F068F9304C2070D7
:1053800007E03621182000F061F920700A20FBF7B1
:105390008BFB2078C006F4D540223621182000F07F
:1053A00069FA3621182000F051F9207007E0362103
:1053B000182000F04BF920700A20FBF775FB2078CD
:1053C000C006F4D560223621182000F053FA3621A9
:1053D000182000F03BF9207007E03621182000F07B
:1053E00035F920700A20FBF75FFB2078C006F4D562
:1053F0003821182000F02AF944B23921182000F091
:1054000025F946B23A21182000F020F945B220468D
:10541000FAF78AFF0627FF433946FAF779FF094C66
:1054200020603046FAF780FF3946FAF771FF606076
:105430002846FAF779FF3946FAF76AFFA060F8BD07
:10544000A0000020201400208EB0FBF7EBFDFDF73C
:10545000E3FB5F48C16A01221143C162C16A114086
:105460000091C26A02210A43C262C06A08400090E9
:10547000FDF744F9FDF762F9FDF7ACF955487D21D8
:1054800009020068FAF736FE53490024401E88429C
:105490000BD85249486152480722C3691B021B0AB4
:1054A0004D042B43C3618C610A614E48FBF71AFC23
:1054B0004C4800214C30FCF7E4FF4A4804214C30B2
:1054C000FCF7DFFF474808214C30FCF7DAFF45487E
:1054D0000C214C30FCF7D5FFFBF79EFAFFF73AFFA3
:1054E000424941480F46424B083708600A46414D41
:1054F00010323B6015600E463F4A183632604860F5
:1055000008467B60103045600D463C48203D726087
:10551000A8613B48E8613B4B3B4903A8FDF7C1FC50
:1055200000F0B0F828786428FAD93A48374A384960
:105530000068126809686B4607C337480368374834
:1055400002683748016803A8FDF7BDFC3549039898
:10555000FAF70AFE03906878002821D1002210464D
:105560000499FDF7FFFAE969FAF7FEFD0146686064
:105570002D48FAF74AFEA860012200200399FDF7A2
:10558000F1FA2A49FAF786FE6861A96906460F46CC
:10559000FAF7EAFDE86031463846FAF736FE286148
:1055A0006868FAF7D3FE0F4E4C3631684863E868F6
:1055B000FAF7CCFE31688863A868FAF7C7FE366848
:1055C000F0632869FAF7C2FE30642C70A8E7000087
:1055D00000100240DC000020FFFFFF0000E000E0C0
:1055E00004ED00E0180200208FC2753C200000206E
:1055F000CDCCCC3D0AD7A33B0AD7233C00005C426C
:10560000000096429A998D4200004843B400002061
:10561000B0000020AC000020C0000020BC00002032
:10562000B80000200000344300001B43000020416C
:1056300010B5FAF79FFE00F0F9F8FAF7AFFE014651
:105640007F20C005FAF726FE10BD000033B54006E6
:10565000010E012083B00C4604430A25034604AA28
:1056600007480095FBF720FC012301AA21460448C6
:105670000095FBF791FB6846007905B030BD00004E
:1056800018020020F8B5634F0024A01CC1B21820F6
:10569000FFF7DCFF3855641C062CF6DB3978787888
:1056A00009090002090140180009FAF748FE594C9F
:1056B000594D243C8B26F605E060A84203DD3146B7
:1056C000FAF7A3FDE060B978F8780909000209014A
:1056D00040180009FAF733FE2061A84203DD314685
:1056E000FAF793FD206139797879090900020901F7
:1056F00040180009FAF723FE6061A84203DD314635
:10570000FAF783FD6061434F0025BF1DA81CC1B29D
:105710006820FFF79BFF78556D1C062DF6DB787827
:10572000397800024018FAF70AFE3C4D8F26F6053C
:10573000A061A84203DD3146FAF767FDA061F87861
:10574000B97800024018FAF7FAFDE061A84203DDDB
:105750003146FAF75AFDE06178793979000240184C
:10576000FAF7EDFD2062A84203DD3146FAF74DFD60
:10577000206261680091E068FAF74FFD284F3968B0
:10578000FAF7F2FCE060054600992069FAF745FD5A
:105790007968FAF7E9FC2061064600996069FAF732
:1057A0003CFDB968FAF7E0FC01467F226061D20552
:1057B0001C48954201DDE26002E0854200D9E060CC
:1057C000964201DD226102E0864200D920619142C9
:1057D00001DD626102E0814200D96061A168A069D7
:1057E0000E46FAF71AFD104D2946FAF716FDA0618C
:1057F0003146E069FAF711FD2946FAF70EFDE0613E
:105800003146206AFAF709FD2946FAF706FD2062BB
:10581000F8BD0000C400002000E0FF4400FEFF4689
:1058200020140020000080BF35FA8E3CF8B50646F3
:105830000C46FAF7BBFF051E0F4600D001200143BE
:1058400049000B484908411AC90F0DD0002E01D05C
:10585000012100E000210C4361004908401AC00FFB
:1058600002D10120FFF7BEF928463946F8BD0000F5
:105870000000F07F1CB56B4619715A714006010E8D
:105880000A20009001AA02230148FBF70DFB1CBD72
:1058900018020020000000000000000001020304C4
:1058A00006070809030406080C1018203000000041
:1058B000555555555555C53F7D6FEB0312D6D4BF91
:1058C0005544880E55C1C93F3B8F68B52882A4BF97
:1058D00088B20175E0EF493F09F7FD0DE13D023F58
:1058E0004B2D8A1C273A03C0C88A599CE52A0040E0
:1058F00059018D1B6C06E6BF82922EB1C5B8B33F2D
:105900004FBB610567ACDD3F182D4454FB21E93FD7
:105910009BF681D20B73EF3F182D4454FB21F93FC6
:10592000E2652F227F2B7A3C075C143326A6813C4C
:10593000BDCBF07A8807703C075C143326A6913CF7
:10594000C4EB98999999C9BF711623FEC671BCBF63
:105950006D9A74AFF2B0B3BF9AFDDE522DDEADBFCB
:105960002F6C6A2C44B4A2BF0D5555555555D53FE3
:10597000FF8300922449C23F6E204CC5CD45B73FFE
:10598000513DD0A0660DB13FEB0D76244B7BA93F76
:1059900011DA22E33AAD903F000000000000000061
:1059A000C059000800000020F8010000C2090008EA
:1059B0008C5A0008F801002038160000D44B00086B
:1059C00001401319371B0849041A55041A7D041A9B
:1059D000A90413F9361B082508170403090412014A
:1059E00014020202164083044057260201020301FA
:1059F000031A1A0313690A1B0865041A61041A8D35
:105A000004610724803A71BD793B195F11920452F9
:105A100020130A0632022A401C1C09024387111C6B
:105A2000C03209261B01020B1305241610010524A0
:105A3000011009010424020205240617010705824A
:105A400003081C100904BD320A1D07050102432C7E
:105A5000070581070938442A40072A8107112B09C5
:105A600007440A3B04441385341408E333140897AD
:105A70003542081A29101A5B101AB104C11A6D18A0
:0C5A80001A61041A79041A550441000050
:04000005080000C12E
:00000001FF
